:1000000015C1000044C1000042C1000040C1000011
:100010003EC100003CC100003AC1000038C10000F0
:1000200036C100000C94030A0C94030A0C94030AD2
:100030002EC10000F2C200002AC1000028C1000049
:1000400026C100000C945F0822C1000020C10000FE
:100050001EC100001CC100001AC100000C94B40BAA
:1000600016C100000C94170F0C944D0F10C1000026
:100070000EC100000CC100000AC1000008C1000050
:100080000C948C0804C1000002C1000000C10000F3
:10009000FEC00000FCC00000FAC00000F8C0000074
:1000A000F6C00000F4C000000C94B908F0C00000D5
:1000B000EEC00000ECC00000EAC000000C94E608AE
:1000C000E6C00000E4C00000E2C00000E0C00000A4
:1000D000DEC00000DCC00000DAC00000D8C00000B4
:1000E000D6C00000D70CDA0CC90CCD0CD30C110D06
:1000F000DE0CE20CE80CEC0CF00CF60CFA0CFE0C2E
:10010000110D040D080D0C0D00000A0B02090C0D59
:100110000E080703040100000000000000000000BA
:1001200000000000000000000000000000000000CF
:10013000000000001211100000000000000000008C
:1001400000000000000000000000000000000102AC
:1001500010202008081020401020408002010201D9
:100160000804020101020408102040808040201091
:1001700008040201800402018040201008040201EA
:100180000804020101020408102040800102040852
:10019000102040800505050507050808080802022B
:1001A00002020A0A08080404040401010101010111
:1001B00001010303030303030303040707070C0CF4
:1001C0000C0C0C0C0C0C02020202060606060606BB
:1001D00006060B0B0B0B0B0B0B0B00002000230078
:1001E000260029002C002F0032000001000003012E
:1001F0000601090100002200250028002B002E0026
:100200003100340002010000050108010B0100006B
:100210002100240027002A002D00300033000101B6
:100220000000040107010A0108037F0F11241FBE0B
:10023000CFEFD1E2DEBFCDBF00E00CBF13E0A0E006
:10024000B2E0EEE3F7E200E00BBF02C007900D92D0
:10025000A437B107D9F725E0A4E7B3E001C01D92A8
:10026000AD3FB207E1F712E0CCE2D2E000E006C019
:1002700022970109FE010BBF0E946A11C832D10703
:1002800080E00807A9F70E94C30F0C949D13B8CE15
:1002900026E040E855E260E070E08CE595E00E94E1
:1002A000B70E61E084E793E09DD46AE070E080E0FF
:1002B00090E00C942D0C84E793E021D661E084E774
:1002C00093E038D5882331F06AE072E08CE595E060
:1002D0000E94121062E084E793E02CD5882331F06D
:1002E0006CE172E08CE595E00E94121063E084E717
:1002F00093E020D5882331F06FE272E08CE595E041
:100300000E94121064E084E793E014D5882331F052
:1003100060E472E08CE595E00E94121065E084E7ED
:1003200093E008D5882331F065E572E08CE595E02F
:100330000E94121068E084E793E0FCD4882389F0DF
:100340006AE672E08CE595E00E940E1068E084E7B2
:1003500093E0FBD44AE050E0682F8CE595E00E94E2
:10036000851069E084E793E0E5D4882389F063E7AA
:1003700072E08CE595E00E940E1069E084E793E05E
:10038000E4D44AE050E0682F8CE595E00E948510A7
:1003900067E084E793E0CED4882389F06EE772E0CB
:1003A0008CE595E00E940E1067E084E793E0CDD4E1
:1003B0004AE050E0682F8CE595E00E94851066E0E9
:1003C00084E793E0B7D4882389F069E872E08CE58C
:1003D00095E00E940E1066E084E793E0B6D44AE010
:1003E00050E0682F8CE595E00E9485106EE084E770
:1003F00093E0A0D4882389F065E972E08CE595E06C
:100400000E940E106EE084E793E09FD44AE050E033
:10041000682F8CE595E00E9485106FE084E793E0FB
:1004200089D4882389F06CE972E08CE595E00E941C
:100430000E106FE084E793E088D44AE050E0682F24
:100440008CE595E00E94851060E184E793E072D42A
:10045000882389F063EA72E08CE595E00E940E1033
:1004600060E184E793E071D44AE050E0682F8CE5C6
:1004700095E00E94851061E184E793E05BD48823D6
:1004800089F06AEA72E08CE595E00E940E1061E165
:1004900084E793E05AD44AE050E0682F8CE595E079
:1004A0000E9485106AE084E793E044D4882389F0B1
:1004B00061EB72E08CE595E00E940E106AE084E743
:1004C00093E043D44AE050E0682F8CE595E00E9429
:1004D00085106CE084E793E02DD4882389F06AEBE3
:1004E00072E08CE595E00E940E106CE084E793E0EA
:1004F0002CD44AE050E0682F8CE595E00E948510EE
:100500006DE084E793E016D4882389F065EC72E00F
:100510008CE595E00E940E106DE084E793E015D421
:100520004AE050E0682F8CE595E00E9485106BE072
:1005300084E793E0FFD3882389F060ED72E08CE5D7
:1005400095E00E940E106BE084E793E0FED34AE052
:1005500050E0682F8CE595E00E94851084E793E0D9
:10056000FBD3803881F06CED72E08CE595E00E9461
:100570000E1084E793E0F0D34AE050E0682F8CE55A
:1005800095E00E94851084E793E0EBD38F3781F0EC
:100590006EEE72E08CE595E00E940E1084E793E029
:1005A000E0D34AE050E0682F8CE595E00E9485108A
:1005B00084E793E0DBD3803881F060E073E08CE582
:1005C00095E00E940E1084E793E0D0D34AE050E01B
:1005D000682F8CE595E00E94851084E793E0CBD3EB
:1005E0008F3781F062E173E08CE595E00E940E1098
:1005F00084E793E0C0D34AE050E0682F8CE595E0B3
:100600000E94851064EF71E080E090E00C942D0C66
:1006100042E363E384E793E078C11F920F920FB641
:100620000F9211240BB60F920F931F932F933F93AA
:100630004F935F936F937F938F939F93AF93BF93EA
:10064000CF93EF93FF93809105040E94800DC82FF4
:1006500020910C0430910D042F5F3F4F30930D0417
:1006600020930C0480917204843618F085E0809306
:10067000070490910704933079F018F4923039F020
:1006800070C0943011F1953009F44AC06AC0C111AC
:1006900068C01092720429C0C13009F062C0E091B4
:1006A000720481E08E0F80937204F0E080910C045C
:1006B00090910D04EA5FFB4F808710920D04109219
:1006C0000C0484E0809307044CC0C11114C0E09175
:1006D000720481E08E0F80937204F0E080910C042C
:1006E00090910D04EA5FFB4F808710920D041092E9
:1006F0000C0483E0E7CF80910C0490910D048536C3
:10070000910578F185E0809307040E94FE0B6093C9
:1007100008047093090480930A0490930B0421C089
:100720000E94FE0B009108041091090420910A0414
:1007300030910B04601B710B820B930B693C7105AC
:100740008105910540F01092720410920D041092F0
:100750000C0482E0B7CFC11104C010920D041092B6
:100760000C04FF91EF91CF91BF91AF919F918F9129
:100770007F916F915F914F913F912F911F910F91B9
:100780000F900BBE0F900FBE0F901F9018950F93F8
:100790001F93CF93DF93EC01062F142F00D78AE22B
:1007A00093E09983888366E673E0CE0186599F4F74
:1007B0000E94FD1019A21F8E18A2FE01EE58FF4FD5
:1007C0000083CD58DF4F1883DF91CF911F910F9198
:1007D0000895CF92DF92EF92FF92CF93DF93EC01D7
:1007E0006A017B0160E472E48FE090E0A70196016A
:1007F0000E9448113BA32AA38F8D81110AC0B70123
:10080000A601CE01DF91CF91FF90EF90DF90CF90C6
:10081000F4C6DF91CF91FF90EF90DF90CF900895D5
:10082000CF92DF92EF92FF920F931F93CF93DF93BC
:10083000FC01C2A1D3A123976C01F2E7CF0ED11C1A
:10084000F60180810E94800D892BF1F400E010E018
:10085000E12CF12CCE010E94520CF60180810E9405
:10086000800D002E02C0880F991F0A94E2F7E82A33
:10087000F92A0F5F1F4F0830110561F7CE010E9462
:10088000520CC701992702C08FEF9FEFDF91CF91E4
:100890001F910F91FF90EF90DF90CF900895FC0192
:1008A000278D211101C0E0C40895FC0120A122235D
:1008B00049F024A135A14FEF5FEF55A344A337FFC3
:1008C00007C0AECFFC01278D211101C0ACC4089533
:1008D000C9010895CF93DF93EC0188A1882359F0D3
:1008E000CE019EDF8CA39DA3892F8095881F88272A
:1008F000881F90E007C08F8D811104C0CE01DF9169
:10090000CF911EC5DF91CF910895EF92FF920F9383
:100910001F93CF93DF931F921F92CDB7DEB78C0149
:1009200084E790E04A8369830E94CF0F7C0120E036
:100930004A8169812CDFF801ED5BFF4FF182E08293
:100940000F900F90DF91CF911F910F91FF90EF903B
:100950000895CF93DF93EC0162E070E080E090E0D7
:100960007CD7CD5BDF4F88819981DC01ED91FC91D3
:100970000480F581E02D1995892B51F088819981AA
:10098000DC01ED91FC910680F781E02D199501C005
:1009900080E0DF91CF9108958D5B9F4FDC018D91B9
:1009A0009C91DC01ED91FC910190F081E02D199575
:1009B00062E070E080E090E050C71F93CF93DF9338
:1009C000EC01162F65E1E8DF612FCE01E5DF80E85D
:1009D0008093750480937604CE01BBDF90E0DF91B5
:1009E000CF911F910895CF93DF93EC0162E2D4DFA2
:1009F00064E170E080E090E030D7CE01DF91CF91EC
:100A0000A8CFCF93DF93EC016CE1C6DF6091760451
:100A1000CE01C2DF8091760490E48927809376042A
:100A2000DF91CF9108951F93CF93DF93EC01162FA1
:100A30006FE4B2DF612FCE01AFDF62E070E080E0F3
:100A400090E00BD7CE01DF91CF911F91CCCFAF9229
:100A5000BF92DF92EF92FF920F931F93CF93DF939A
:100A60001F92CDB7DEB78C01F62E68E2798394DF52
:100A7000C8016FDFE82EDF2CAF2C7981B72E8A2DCD
:100A80008D198E1531F0C80164DFF50181935F0186
:100A9000F6CF8E2D0F90DF91CF911F910F91FF9088
:100AA000EF90DF90BF90AF900895CF93DF93EC016C
:100AB0006BE072DF67E1CE016FDF68EDCE01DF91A1
:100AC000CF916ACF0F931F93CF93DF93EC01162F33
:100AD00065E462DF612FCE015FDFCE0184DF082F86
:100AE000843131F463E1CE0157DF612FCE0154DF51
:100AF000802FDF91CF911F910F9108951F93CF9376
:100B0000DF93EC01162F80E88093750480937604C0
:100B100069E4CE0141DF612FCE013EDFCE01DF91DE
:100B2000CF911F9160CFCF93DF93EC0161E434DF6D
:100B3000609179046068CE012FDF80E880937604AD
:100B4000CE01DF91CF914FCF1F93CF93DF93EC0175
:100B5000162F66E421DF612FCE011EDFCE01DF916B
:100B6000CF911F9140CFCF93DF93EC014ADF60918B
:100B7000770480E1689FB00111246960CE0153DFE2
:100B8000843151F4BE016D5F7F4FCE0160DFCB5BDE
:100B9000DF4F198218820DC0863119F419821A822A
:100BA00007C0CE01C0DF6AE070E080E090E055D67B
:100BB00080E0DF91CF910895CF93DF93EC0167E060
:100BC00070E0FBDE6AE070E080E090E046D666E030
:100BD00070E0CE01F2DE6AE070E080E090E0DF914C
:100BE000CF913BC6FC01108211821282DC01A0571A
:100BF000BF4F1C92A954B1096C93ED5BFF4F40E8C5
:100C000055E260E070E080819181E3CD0F931F9306
:100C1000CF93DF93EC01FC01E95BFF4F80818111F1
:100C200002C0CE0142DF61E0CE018EDF843119F0D7
:100C300080E090E04CC08E010D5F1F4FB801CE01E7
:100C400006DF62E0CE013EDF843191F762E0CE0143
:100C50007BDF843169F7B801CE01F9DE8E898132FC
:100C600049F4CE0145962D89820F911D909374040D
:100C7000809373041092770410927904E0917304C6
:100C8000F09174049281892F8F7097FF03C0809335
:100C900077040AC080937904898D9FEF980F903470
:100CA00008F080E4809378046885CE0127DF8431E2
:100CB00009F0BECF6BE0CE016FDE65E2CE016CDEE7
:100CC00065E8CE0169DE81E08A8381E090E0DF9112
:100CD000CF911F910F910895CF93DF93EC018881FD
:100CE00081110DC066E0CE0157DE6AE5CE0154DE0B
:100CF000CE012FDE853AC9F4CE015EDF1882CE0127
:100D000072DE853191F4CE0157DF64EF71E080E04F
:100D100090E0A3D5CE0167DE8531B9F7CE0176DF4D
:100D2000019711F481E0898302C080E090E0DF91B7
:100D3000CF910895860F911DFC01E45AFF4F81E089
:100D40009081911101C080E00895860F911DFC01F2
:100D5000E65BFF4F80810895825B9F4FFC0180819D
:100D60000895815B9F4FFC0180810895845B9F4FB4
:100D7000FC0180810895835B9F4FFC018081089571
:100D800020E030E0FB014191BF01FC01E20FF31FC5
:100D9000E75BFF4F40832F5F3F4F2331310591F7D2
:100DA000FC01EC59FF4F21E0DC01AE5ABF4F3C91F2
:100DB000311101C020E02083FC01EB59FF4F21E0FD
:100DC000DC01AD5ABF4F3C91311101C020E02083BE
:100DD000FC01ED59FF4F21E0DC01AF5ABF4F3C91C0
:100DE000311101C020E02083FC01EE59FF4F21E0CA
:100DF000DC01A05BBF4F3C91311101C020E020839A
:100E0000FC01E65BFF4F2081739621FB332730F90D
:100E100030833196322F31703083319624FB332763
:100E200030F93083319622FB332730F93083319605
:100E300023FB222720F92083399621E0DC01A85AE0
:100E4000BF4F3C91311101C020E02083FC01E559E6
:100E5000FF4F21E0DC01A75ABF4F3C91311101C087
:100E600020E02083FC01E459FF4F21E0DC01A65A79
:100E7000BF4F3C91311101C020E02083FC01E359B8
:100E8000FF4F21E0DC01A55ABF4F3C91311101C059
:100E900020E02083FC01EA59FF4F21E0DC01AC5A3D
:100EA000BF4F3C91311101C020E02083FC01E85983
:100EB000FF4F21E0DC01AA5ABF4F3C91311101C024
:100EC00020E02083FC01E759FF4F21E0DC01A95A13
:100ED000BF4F3C91311101C020E02083FC01E95952
:100EE000FF4FDC01AB5ABF4F21E08C91811101C053
:100EF00020E0208362E070E080E090E0AEC4CF9319
:100F0000DF93EC01898181110DC0CE01E5DE66E33E
:100F100073E08CE595E00E94121068EE73E080E0CB
:100F200090E00BC0CE011FDEBE016D5F7F4FCE0192
:100F300027DF62E070E080E090E0DF91CF918DC428
:100F4000CF92DF92EF92FF920F931F93CF93DF9395
:100F50006C018B017A01EC01C558DB4F888187FF5A
:100F600004C0FB011182108223C02CE02C9DC00123
:100F70002D9D900D11242881AC01420F511D27FD9C
:100F80005A9520917A0430E0421753078CF4288157
:100F9000AC01420F511D27FD5A959A01FA01EE0F3F
:100FA000FF1FE20FF31FE158FB4F208127FD19C0FF
:100FB00088818F5F88838CE08C9D90018D9D300DA2
:100FC00011248881A901480F511D87FD5A958091F0
:100FD0007A0490E048175907ACF488818C3034F1DA
:100FE00011C02881820F911D27FD9A95FC01EE0FFB
:100FF000FF1FE80FF91FE158FB4F808160E08F77FA
:101000004AD5D6CFF80180819181049680349C49DD
:1010100018F480E49CE904C0F80180819181049671
:10102000F701918380838FEF888340C0F80180812E
:1010300091814881B901640F711D47FD7A95AB011B
:10104000FB01EE0FFF1FE40FF51FE158FB4F41813D
:101050005281840F951FF701918380838881A901B4
:10106000480F511D87FD5A95FA01EE0FFF1FE40F3F
:10107000F51FE158FB4F808187FF18C08881280F3A
:10108000311D87FD3A95F901EE0FFF1FE20FF31FA7
:10109000E158FB4F808161E08F77DF91CF911F9105
:1010A0000F91FF90EF90DF90CF90F5C4DF91CF913B
:1010B0001F910F91FF90EF90DF90CF9008951F92B6
:1010C0000F920FB60F9211240BB60F922F933F93EE
:1010D0004F935F936F937F938F939F93AF93BF9340
:1010E000EF93FF9348E850E064E870E081E090E01F
:1010F00027DFFF91EF91BF91AF919F918F917F91EA
:101100006F915F914F913F912F910F900BBE0F9078
:101110000FBE0F901F9018951F920F920FB60F924F
:1011200011240BB60F922F933F934F935F936F93BE
:101130007F938F939F93AF93BF93EF93FF9348E970
:1011400050E064E970E082E090E0FADEFF91EF9118
:10115000BF91AF919F918F917F916F915F914F91CF
:101160003F912F910F900BBE0F900FBE0F901F90CD
:1011700018951F920F920FB60F9211240BB60F9273
:101180002F933F934F935F936F937F938F939F938F
:10119000AF93BF93EF93FF9348EA50E064EA70E0A7
:1011A00083E090E0CDDEFF91EF91BF91AF919F91F1
:1011B0008F917F916F915F914F913F912F910F9000
:1011C0000BBE0F900FBE0F901F9018951F920F929D
:1011D0000FB60F9211240BB60F922F933F934F939C
:1011E0005F936F937F938F939F93AF93BF93EF938F
:1011F000FF9348E251E064E271E080E090E0A0DE1D
:10120000FF91EF91BF91AF919F918F917F916F91DE
:101210005F914F913F912F910F900BBE0F900FBE9A
:101220000F901F9018952091510530915205281765
:101230003907B9F490910F0580911005981789F03E
:10124000E0910F05F0E0EF5EFA4F808120910F05ED
:1012500030E02F5F3F4F2F73332720930F0590E02F
:1012600008958FEF9FEF08951F93CF93DF93DC01D5
:101270005C968D919C915D97009749F481E090E098
:1012800013969C938E93129780E090E03BC051960A
:10129000ED91FC91529750962C915097322F3095AA
:1012A0001FB75E964C915E9741FB772770F941FD21
:1012B0006095F8944081772311F0422B01C04323BD
:1012C0004083EC012197F1F748E0508160FF02C0B4
:1012D000522B01C053235083EC012197F1F76695FF
:1012E000415099F78081772311F0832301C0822B2D
:1012F00080831FBF5C968D919C915D970197F1F75C
:1013000081E090E0DF91CF911F91089520915105E8
:10131000309152052817390781F490910F0580917B
:101320001005981751F0E0910F05F0E0EF5EFA4FCD
:101330008081992787FD909508958FEF9FEF0895FD
:1013400020915105309152052817390761F4809199
:10135000100520910F0590E0805C9F4F821B910942
:1013600060E470E060C780E090E00895209151054E
:10137000309152052817390739F48FB7F894109235
:10138000100510920F058FBF0895E0915105F0915F
:101390005205E817F90769F4A389B4899C918589F6
:1013A000809589238C93109252051092510581E00B
:1013B000089580E00895CF93DF93EC018A8D9B8D93
:1013C000892BE9F080915105909152058C179D076A
:1013D000B1F0009709F0D9DF8E8D8E7F8E8F10923D
:1013E000100510920F05D0935205C0935105EB895B
:1013F000FC8980819D89892B808381E001C080E008
:10140000DF91CF9108951F920F920FB60F92112482
:101410000BB60F922F933F934F935F936F937F93EE
:101420008F939F93AF93BF93EF93FF93E0915105F9
:10143000F0915205309709F451C0868DA685B78585
:10144000958581FF04C08C91892329F447C08C9134
:10145000892309F043C0A389B4899C91858980952B
:1014600089238C93868997890197F1F7208D318D97
:10147000A685B785758558E040E0C9010197F1F769
:10148000842F90E095958795482F6C91672309F0FC
:101490004068515091F7868D81FD409580911005EF
:1014A00090E001968F73992720910F05281749F036
:1014B000A0911005B0E0AF5EBA4F4C938093100539
:1014C00003C0868D8160868F828D938D0197F1F7A1
:1014D000A389B4898C919589892B8C93FF91EF9185
:1014E000BF91AF919F918F917F916F915F914F913C
:1014F0003F912F910F900BBE0F900FBE0F901F903A
:1015000018951F93CF93DF93EC01162F6E8D669580
:10151000617081E06827812FBED261E0812F82D285
:10152000812F90E0FC01E25BFE4FE491E88BFC012F
:10153000EC56FE4FE491F0E0EE0FFF1FEC50FE4F33
:10154000859194919A8B898BDF91CF911F9108950A
:101550001F93CF93DF93EC01162F60E0812F62D2AF
:101560008E8D81FD03C061E0812F95D21C87812F74
:1015700090E0FC01E25BFE4FE491ED87FC01EC564C
:10158000FE4FE491F0E0EE0FFF1FE652FE4F859113
:1015900094919F878E87DF91CF911F910895FF923D
:1015A0000F931F93CF93DF93EC01F62E522F1B82E4
:1015B0001A8208EE13E020E030E00C831D832E83B6
:1015C0003F8388E493E0998388831F8A1E8A198E5B
:1015D000188E1B8E1A8E1D8E1C8E8E8D8E7F50FB4C
:1015E00081F98E8F642FCE018CDF6F2DCE01DF91BC
:1015F000CF911F910F91FF90ABCF0F931F93CF937C
:10160000DF93EC019A01AB011B8E1A8E198E188E96
:101610001F8A1E8A60E079E08DE390E039D6C90127
:101620002430310520F0B9016350710902C061E036
:1016300070E07D8F6C8F1C8506EF010F043048F041
:101640006EEC610F643028F062EC610F683008F0D6
:101650007DC0B901769567956431710518F06351C5
:10166000710902C061E070E07F8B6E8B069718F005
:10167000C901059702C081E090E0998F888FC90168
:10168000880F991F820F931F96958795969587953A
:101690008D30910510F00C9702C081E090E09B8F97
:1016A0008A8F043060F08EEC810F843040F082EC41
:1016B000810F883008F050C0A8E6B0E04FC0A8E61F
:1016C000B0E0E8E6F0E09081043028F01E531830D6
:1016D00010F484E001C081E0892B8C932C8536EFD7
:1016E000320F343058F08EEC820F843038F082ECB8
:1016F000820F883030F48DE690E005C08BE690E0F4
:1017000002C080E090E09C8B8B8B343010F426502C
:101710000BC0223379F0233379F0243379F082EC53
:10172000820F883068F4282F81E001C0880F2A9545
:10173000EAF707C088E005C084E003C082E001C08A
:1017400081E08D8B8C8D9D8D0197F1F7CE01DF911E
:10175000CF911F910F912FCEA0E0B0E0883008F418
:10176000B0CFE0E0F0E0AFCF1F920F920FB60F9234
:1017700011242F933F938F939F93AF93BF938091A7
:10178000540590915505A0915605B091570530919B
:10179000530523E0230F2D3720F40196A11DB11D21
:1017A00005C026E8230F0296A11DB11D2093530505
:1017B0008093540590935505A0935605B093570513
:1017C0008091580590915905A0915A05B0915B05FB
:1017D0000196A11DB11D8093580590935905A093C2
:1017E0005A05B0935B05BF91AF919F918F913F9147
:1017F0002F910F900FBE0F901F9018952FB7F89450
:10180000609154057091550580915605909157054A
:101810002FBF08953FB7F8948091580590915905CE
:10182000A0915A05B0915B0526B5A89B05C02F3F36
:1018300019F00196A11DB11D3FBF6627782F892F92
:101840009A2F620F711D811D911D42E0660F771F57
:10185000881F991F4A95D1F70895CF92DF92EF9292
:10186000FF92CF93DF936B017C01D4DFEB01C114B6
:10187000D104E104F10479F0D5D4CCDF6C1B7D0BED
:10188000683E7340A0F381E0C81AD108E108F1086E
:10189000C851DC4FECCFDF91CF91FF90EF90DF90FC
:1018A000CF9008958230910538F0880F991F880FE6
:1018B000991F05970197F1F70895789484B5826090
:1018C00084BD84B5816084BD85B5826085BD85B5E4
:1018D000816085BDEEE6F0E0808181608083E1E893
:1018E000F0E01082808182608083808181608083CB
:1018F000E0E8F0E0808181608083E1EBF0E08081CE
:1019000084608083E0EBF0E0808181608083E1E9A6
:10191000F0E0808182608083808181608083E0E963
:10192000F0E0808181608083E1EAF0E08081826084
:101930008083808181608083E0EAF0E08081816043
:101940008083E1E2F1E08081826080838081816038
:101950008083E0E2F1E0808181608083EAE7F0E06B
:1019600080818460808380818260808380818160C7
:1019700080838081806880831092C100089590E008
:10198000FC013197E231F10508F04BC0EE58FF4FF2
:101990009BC4809180008F7703C0809180008F7DF1
:1019A00080938000089580918000877FF9CF84B56F
:1019B0008F7702C084B58F7D84BD08958091B0007B
:1019C0008F7703C08091B0008F7D8093B000089521
:1019D000809190008F7707C0809190008F7D03C029
:1019E00080919000877F8093900008958091A0005F
:1019F0008F7707C08091A0008F7D03C08091A000E9
:101A0000877F8093A0000895809120018F7707C081
:101A1000809120018F7D03C080912001877F80937A
:101A200020010895CF93DF9390E0FC01E25BFE4F2D
:101A30002491FC01EC56FE4F8491882349F190E0FB
:101A4000880F991FFC01E25FFD4FA591B4918C5066
:101A50009E4FFC01C591D4919FB7611108C0F894C5
:101A60008C91209582238C93888182230AC06230D6
:101A700051F4F8948C91322F309583238C93888184
:101A8000822B888304C0F8948C91822B8C939FBF07
:101A9000DF91CF9108950F931F93CF93DF931F9200
:101AA000CDB7DEB7282F30E0F901E85FFE4F849113
:101AB000F901E25BFE4F1491F901EC56FE4F0491DF
:101AC0000023C1F0882319F0698359DF6981E02F71
:101AD000F0E0EE0FFF1FEC50FE4FA591B4919FB7C1
:101AE000F8948C91611103C01095812301C0812B62
:101AF0008C939FBF0F90DF91CF911F910F9108950D
:101B0000CF93DF93282F30E0F901E85FFE4F8491F7
:101B1000F901E25BFE4FD491F901EC56FE4FC491FE
:101B2000CC2389F081112BDFEC2FF0E0EE0FFF1FAB
:101B3000E652FE4FA591B4912C912D2381E090E0C7
:101B400021F480E002C080E090E0DF91CF91089521
:101B5000FC01818D228D90E0805C9F4F821B91095A
:101B60008F7399270895FC01918D828D981731F01C
:101B7000828DE80FF11D858D90E008958FEF9FEF26
:101B80000895FC01918D828D981761F0828DDF019F
:101B9000A80FB11D5D968C91928D9F5F9F73928F60
:101BA00090E008958FEF9FEF089586E79FE0892BDF
:101BB00039F080E090E0892B19F098D1811125C08F
:101BC00080E090E0892B41F080E090E0892B21F0CB
:101BD0000E94000081111CC080E090E0892B41F040
:101BE00080E090E0892B21F00E940000811113C059
:101BF00080E090E0892BA1F080E090E0892B81F0DB
:101C00000E94000081110AC008950E940000D8CFF0
:101C10000E940000E1CF0E940000EACF0C94000077
:101C20000895FC01848DDF01A80FB11DA35ABF4F99
:101C30002C91848D90E001968F739927848FA689CB
:101C4000B7892C93A089B1898C9180648C93938DF2
:101C5000848D981306C00288F389E02D80818F7DE2
:101C600080830895CF93DF93EC01888D8823C1F0A2
:101C7000EA89FB89808185FD05C0A889B9898C9195
:101C800086FD0EC00FB607FCF5CF808185FFF2CF31
:101C9000A889B9898C9185FFEDCFCE01C2DFE8CF4D
:101CA000DF91CF910895CF92DF92FF920F931F9310
:101CB000CF93DF931F92CDB7DEB76C0181E0D601E1
:101CC00058968C9358975B969C915B975C968C91F9
:101CD0005C97981307C05096ED91FC9151978081C5
:101CE00085FD2DC0F601038D10E00F5F1F4F0F73B0
:101CF0001127F02EF601848DF81210C00FB607FCE4
:101D0000F9CFD6015096ED91FC915197808185FFD6
:101D1000F1CFC601698385DF6981ECCF838DE80F40
:101D2000F11DE35AFF4F6083D6015B960C935B97DE
:101D30005296ED91FC915397808180620CC0D60140
:101D40005696ED91FC91579760835096ED91FC91DA
:101D5000519780818064808381E090E00F90DF91D3
:101D6000CF911F910F91FF90DF90CF900895BF9278
:101D7000CF92DF92EF92FF92CF93DF93EC016A0153
:101D80007B01B22EE889F98982E08083411581EEDA
:101D900058076105710599F060E079E08DE390E006
:101DA000A701960153D22150310941095109569595
:101DB000479537952795211580E1380790F0E889F8
:101DC000F989108260E874E88EE190E0A70196013D
:101DD0003DD2215031094109510956954795379512
:101DE0002795EC85FD853083EE85FF852083188E51
:101DF000EC89FD89B082EA89FB89808180618083DA
:101E0000EA89FB89808188608083EA89FB898081F7
:101E100080688083EA89FB8980818F7D8083DF9160
:101E2000CF91FF90EF90DF90CF90BF9008951F92D9
:101E30000F920FB60F9211240BB60F922F938F9320
:101E40009F93EF93FF93E0916C05F0916D05808176
:101E5000E0917205F091730582FD12C0908180912E
:101E600075058F5F8F7320917605821751F0E09191
:101E70007505F0E0E45AFA4F958F8093750501C01F
:101E80008081FF91EF919F918F912F910F900BBEC9
:101E90000F900FBE0F901F9018951F920F920FB6C4
:101EA0000F9211240BB60F922F933F934F935F9392
:101EB0006F937F938F939F93AF93BF93EF93FF9312
:101EC0008CE595E0AEDEFF91EF91BF91AF919F91D0
:101ED0008F917F916F915F914F913F912F910F90D3
:101EE0000BBE0F900FBE0F901F9018958CE595E0DC
:101EF0002FDE21E0892B09F420E0822F0895109233
:101F00005F0510925E0588EE93E0A0E0B0E080935C
:101F1000600590936105A0936205B093630588E521
:101F200093E090935D0580935C0585EC90E0909341
:101F300069058093680584EC90E090936B0580932D
:101F40006A0580EC90E090936D0580936C0581ECC0
:101F500090E090936F0580936E0582EC90E09093F3
:101F600071058093700586EC90E0909373058093E3
:101F700072051092750510927605109277051092F1
:101F800078050895089599DCFDDF0E944801C5EDAC
:101F9000DDE00E945B012097E1F307DEFACFB2C1DA
:101FA000CF92DF92EF92FF920F931F93CF93DF9325
:101FB0006C017A01EB01E60EF71E00E010E0CE1591
:101FC000DF0561F06991D601ED91FC910190F081FE
:101FD000E02DC6011995080F191FF1CFC801DF9137
:101FE000CF911F910F91FF90EF90DF90CF900895C8
:101FF0006115710581F0DB010D900020E9F7AD015D
:1020000041505109461B570BDC01ED91FC910280B8
:10201000F381E02D199480E090E00895E9CF64E623
:1020200073E0E6CF0F931F93CF93DF93EC01E0DFD4
:102030008C01CE01F4DF800F911FDF91CF911F91B2
:102040000F9108958F929F92AF92BF92CF92DF929D
:10205000EF92FF920F931F93CF93DF93CDB7DEB72D
:10206000A1970FB6F894DEBF0FBECDBF7C01C42E82
:10207000E52FCB01D22E19A221E02D1510F02AE078
:10208000D22E8E010F5D1F4F8D2C912CA12CB12CC7
:102090006C2D7E2FA5019401D9D08C2DD29E801954
:1020A0001124015011098A3014F4805D01C0895C4B
:1020B000F8018083211531054105510521F0C22E1B
:1020C000E32FCA01E5CFB801C70192DFA1960FB691
:1020D000F894DEBF0FBECDBFDF91CF911F910F915E
:1020E000FF90EF90DF90CF90BF90AF909F908F9038
:1020F00008952115310541F4DC01ED91FC91019029
:10210000F081E02D642F19949DCF0F931F93CF93EF
:10211000DF93EC019A01462F50E060E070E0E9DFC8
:102120008C01CE017CDF800F911FDF91CF911F9139
:102130000F910895CF93DF93EC01888199810097E7
:1021400009F078D1198218821D821C821B821A82A2
:10215000DF91CF9108950F931F93CF93DF93EC01FD
:102160008B016F5F7F4F88819981F3D1009731F0A8
:10217000998388831B830A8381E001C080E0DF911B
:10218000CF911F910F910895CF93DF93EC01888138
:102190009981892B29F08A819B818617970758F4AA
:1021A000CE01D9DF882341F08C819D81892B19F4E0
:1021B000E881F981108281E0DF91CF910895EF925B
:1021C000FF920F931F93CF93DF93EC017B018A0162
:1021D000BA01DADF811103C0CE01ACDF06C01D8376
:1021E0000C83B70188819981A1D2CE01DF91CF9173
:1021F0001F910F91FF90EF900895FC0111821082C2
:1022000013821282158214826115710551F0FB014F
:1022100001900020E9F7AF0141505109461B570BCF
:10222000CECF0895089597FB072E16F4009406D09C
:1022300077FD08D053D007FC05D03EF490958195EA
:102240009F4F0895709561957F4F0895A1E21A2ED2
:10225000AA1BBB1BFD010DC0AA1FBB1FEE1FFF1F4A
:10226000A217B307E407F50720F0A21BB30BE40B9A
:10227000F50B661F771F881F991F1A9469F76095E1
:102280007095809590959B01AC01BD01CF0108959B
:10229000052E97FB16F400940FD057FD05D0D6DF1E
:1022A00007FC02D046F408C0509540953095219522
:1022B0003F4F4F4F5F4F0895909580957095619572
:1022C0007F4F8F4F9F4F0895EE0FFF1F0590F491A2
:1022D000E02D19940790F691E02D1994AA1BBB1BD1
:1022E00051E107C0AA1FBB1FA617B70710F0A61B16
:1022F000B70B881F991F5A95A9F780959095BC0137
:10230000CD010895CF93DF938230910510F482E0E0
:1023100090E0E091FB05F091FC0520E030E0A0E0CA
:10232000B0E0309739F14081518148175907B8F032
:102330004817590771F482819381109729F01396F9
:102340009C938E9312972CC09093FC058093FB0571
:1023500027C02115310531F04217530718F0A901A4
:10236000DB0101C0EF019A01BD01DF010280F381B1
:10237000E02DD7CF21153105F9F0281B390B24307A
:10238000310580F48A819B816115710521F0FB0183
:102390009383828304C09093FC058093FB05FE0128
:1023A000329644C0FE01E20FF31F819391932250B5
:1023B0003109398328833AC02091F9053091FA0513
:1023C000232B41F420910202309103023093FA054D
:1023D0002093F90520910002309101022115310569
:1023E00041F42DB73EB74091040250910502241BE1
:1023F000350BE091F905F091FA05E217F307A0F427
:102400002E1B3F0B2817390778F0AC014E5F5F4F4A
:102410002417350748F04E0F5F1F5093FA0540937D
:10242000F9058193919302C0E0E0F0E0CF01DF91E4
:10243000CF910895CF93DF93009709F487C0FC01F3
:10244000329713821282C091FB05D091FC05209730
:1024500081F420813181280F391F8091F9059091F5
:10246000FA058217930779F5F093FA05E093F905D9
:102470006DC0DE0120E030E0AE17BF0750F41296C9
:102480004D915C9113979D014115510509F1DA01B8
:10249000F3CFB383A28340815181840F951F8A17A4
:1024A0009B0771F48D919C911197840F951F029653
:1024B0009183808312968D919C911397938382834D
:1024C0002115310529F4F093FC05E093FB053EC08E
:1024D000D9011396FC93EE9312974D915D91A40F41
:1024E000B51FEA17FB0779F480819181840F951F4E
:1024F0000296D90111969C938E93828193811396B3
:102500009C938E931297E0E0F0E08A819B81009784
:1025100019F0FE01EC01F9CFCE0102962881398134
:10252000820F931F2091F9053091FA05281739077A
:1025300069F4309729F41092FC051092FB0502C053
:1025400013821282D093FA05C093F905DF91CF91DF
:1025500008956F927F928F929F92AF92BF92CF9287
:10256000DF92EF92FF920F931F93CF93DF93EC01D3
:10257000CB01209779F4DF91CF911F910F91FF90BC
:10258000EF90DF90CF90BF90AF909F908F907F9013
:102590006F90B8CEFE01E60FF71F9E012250310961
:1025A000E217F30708F4A8C0D9010D911C91119707
:1025B00006171707B0F00530110508F49BC0A801F5
:1025C000445051094617570708F494C002501109A6
:1025D000061B170B019311936D937C93CF012ADF98
:1025E00089C05B01A01AB10A4E01800E911EA09114
:1025F000FB05B091FC05612C712C60E070E0109738
:1026000009F449C0A815B905C9F5ED90FC901197DA
:10261000670142E0C40ED11CCA14DB0478F1470103
:102620008A189B08640142E0C40ED11C1296BC902B
:1026300012971396AC91B5E0CB16D10440F0B2825C
:10264000A38391828082D9018D939C9309C00E5FF0
:102650001F4F0E0D1F1DF90111830083EB2DFA2F63
:102660006115710531F0DB011396FC93EE9312971F
:1026700041C0F093FC05E093FB053CC06D917C915B
:1026800011976616770608F43B01BD0112960D906E
:10269000BC91A02DB4CF6091F9057091FA05681531
:1026A0007905E9F468167906D0F44091000250915A
:1026B00001024115510541F44DB75EB76091040226
:1026C00070910502461B570BE417F507A8F4F09329
:1026D000FA05E093F905F901918380830BC012DEBE
:1026E0007C01009749F0A801BE0117D0CE01A2DEFF
:1026F000C70104C0CE0102C080E090E0DF91CF911D
:102700001F910F91FF90EF90DF90CF90BF90AF900F
:102710009F908F907F906F900895FB01DC0102C025
:1027200001900D9241505040D8F70895FB01DC0113
:0E27300001900D920020E1F70895F894FFCF7C
:10273E000000FD058000010000005354415254205A
:10274E0069732070726573736564210053454C453F
:10275E004354206973207072657373656421004D54
:10276E004F44452069732070726573736564210050
:10277E00425554544F4E5F4C2069732070726573EE
:10278E007365642100425554544F4E5F5220697355
:10279E00207072657373656421004C20555020695A
:1027AE007320004C20444F574E20697320004C205C
:1027BE004C45465420697320004C205249474854DA
:1027CE0020697320004C312069732000523120693A
:1027DE007320004C3220697320005232206973201E
:1027EE00005220555020697320005220444F574EFE
:1027FE00206973200052204C4546542069732000F6
:10280E005220524947485420697320005053325F7A
:10281E0052582076616C75652069733A20005053CA
:10282E00325F52592076616C75652069733A2000CB
:10283E005053325F4C582076616C75652069733A3F
:10284E0020005053325F4C592076616C75652069BB
:10285E00733A20003D00000000004F04D00F6A04C0
:10286E0055048609B60974727920616761696E2014
:10287E002E2E2E00000000003409D00FA0091309DF
:10288E008609B60900000000530ED00FA80DC10D29
:10289E00B30D320E0D0A006E616E00696E66006F2A
:0428AE00766600004A
:00000001FF
